:020000040800F2
:1000000000280020FD070008D1060008D9060008D6
:10001000E1060008E9060008F106000800000000FB
:10002000000000000000000000000000F9060008C9
:100030000507000800000000110700081D07000860
:10004000450800084508000845080008450800085C
:10005000450800084508000845080008450800084C
:10006000450800084508000845080008450800083C
:10007000450800084508000845080008450800082C
:10008000450800084508000845080008450800081C
:10009000450800084508000845080008450800080C
:1000A00045080008450800084508000845080008FC
:1000B0004508000845080008000000004508000841
:1000C0004508000800000000000000004508000886
:1000D0000000000045080008450800080000000076
:1000E0004508000845080008450800080000000011
:1000F0000000000000000000000000000000000000
:0C01000000000000000000005FF808F1A3
:10010C0010B5054C237833B9044B13B10448AFF345
:10011C0000800123237010BD5C0000200000000053
:10012C00502A000808B5034B1BB103490348AFF331
:10013C00008008BD0000000060000020502A00086C
:10014C00034613F8012B002AFBD1181A013870470B
:10015C0080B582B000AF78607868FFF7F1FF034696
:10016C009AB24FF0FF337968034801F057FD00BF96
:10017C000837BD4680BD00BFD0000020B0B5A0B090
:10018C0002AF0346FB71FB79002B7AD0FB79052B70
:10019C0077D8FB799BB203F58053A7F87630B7F884
:1001AC0076301B0A9BB2DAB23A4B1A70B7F876303B
:1001BC00DAB2384B5A70374B00229A700022012168
:1001CC00354800F021FE4FF0FF3300930323334AF0
:1001DC003049334801F0ABFA012201212E4800F0DE
:1001EC0013FE0A2000F08CFB002201212A4800F0AB
:1001FC000BFE4FF0FF3300930323284A2549284870
:10020C0001F095FA01220121234800F0FDFD234B5A
:10021C001B781A04214B5B781B0213431F4A9278FC
:10022C0013433B673B6F1B0BC3F30B031D4A13605C
:10023C003B6FC3F30B031C4A1360B7F87640194BA2
:10024C001B681A4AA2FB0323DD08164B1968174BCF
:10025C00A3FB0123DA0813469B0013445B00CA1A64
:10026C00114B1B6807F10C00019300922B462246A0
:10027C000F4901F037FF07F10C031846FFF768FF31
:10028C0003E00C48FFF764FF00BF00BF7837BD46A2
:10029C00B0BD00BF14010020000C0140180100206B
:1002AC00780000201C01002020010020CDCCCCCCFB
:1002BC00682A0008A82A000880B582B000AF00F0B8
:1002CC00BDFA00F057F800F0F1F800F08FF800F0EC
:1002DC00C3F81F48FFF73CFF1E48FFF739FF1E48C5
:1002EC00FFF736FF1D48FFF733FFF91D4FF0FF33C3
:1002FC0001221B4801F02BFD0346002BF5D1FB79A5
:10030C00302B1AD9FB79352B17D8FB79303BDAB265
:10031C00144B1A70F91D4FF0FF330122104801F0F5
:10032C007DFC1148FFF714FF0E4B1B781846FFF7A6
:10033C0025FF0E48FFF70CFF08E0FB790D2BD4D0FE
:10034C00FB790A2BD1D00A48FFF702FFCDE700BF9B
:10035C00C82A0008EC2A0008082B00082C2B0008DF
:10036C00D000002010010020442B0008482B00086E
:10037C00642B000880B590B000AF07F11803282259
:10038C000021184601F0D0FE3B1D00221A605A6075
:10039C009A60DA601A610223BB610123BB621023ED
:1003AC00FB6200237B6307F11803184600F044FD41
:1003BC000346002B01D000F0B7F80F237B6000231D
:1003CC00BB600023FB6000233B6100237B613B1D72
:1003DC000021184600F0B2FF0346002B01D000F0BC
:1003EC00A3F800BF4037BD4680BD000080B500AF0C
:1003FC00174B184A1A60164B4FF482725A60144B02
:10040C0000229A60124B0022DA60114B00221A6112
:10041C000F4B00225A610E4B4FF400729A610C4B39
:10042C002822DA610A4B00221A62094B00225A6216
:10043C00074B00229A62064B0A22DA62044801F04A
:10044C0015F90346002B01D000F06EF800BF80BDFB
:10045C00780000200030014080B500AF114B124AEB
:10046C001A60104B4FF416525A600E4B00229A60D1
:10047C000C4B0022DA600B4B00221A61094B0C2248
:10048C005A61084B00229A61064B0022DA6105483A
:10049C0001F077FB0346002B01D000F045F800BFBC
:1004AC0080BD00BFD00000200038014080B586B070
:1004BC0000AF07F1080300221A605A609A60DA60F4
:1004CC00174B9B69164A43F004039361144B9B69C9
:1004DC0003F004037B607B68114B9B69104A43F06B
:1004EC00080393610E4B9B6903F008033B603B6868
:1004FC00012201210B4800F087FC0123BB60012382
:10050C00FB6000233B6102237B6107F10803194662
:10051C00044800F0FDFA00BF1837BD4680BD00BF8F
:10052C0000100240000C014080B400AF72B600BF56
:10053C0000BFFDE780B485B000AF154B9B69144A32
:10054C0043F001039361124B9B6903F00103BB6001
:10055C00BB680F4BDB690E4A43F08053D3610C4BE5
:10056C00DB6903F080537B607B680A4B5B68FB6044
:10057C00FB6823F0E063FB60FB6843F08063FB6087
:10058C00044AFB68536000BF1437BD4680BC7047FB
:10059C00001002400000014080B588B000AF7860C8
:1005AC0007F1100300221A605A609A60DA607B68C7
:1005BC001B681B4A93422FD11A4B9B69194A43F46F
:1005CC0080539361174B9B6903F48053FB60FB686A
:1005DC00144B9B69134A43F004039361114B9B69C1
:1005EC0003F00403BB60BB68A0233B6102237B6167
:1005FC000323FB6107F1100319460B4800F088FA3E
:10060C0040233B6100237B610023BB6107F1100396
:10061C001946054800F07CFA00BF2037BD4680BD66
:10062C0000300140001002400008014080B588B045
:10063C0000AF786007F1100300221A605A609A60CC
:10064C00DA607B681B681C4A934231D11B4B9B6957
:10065C001A4A43F480439361184B9B6903F480431B
:10066C00FB60FB68154B9B69144A43F004039361D0
:10067C00124B9B6903F00403BB60BB684FF400731F
:10068C003B6102237B610323FB6107F110031946D5
:10069C000B4800F03DFA4FF480633B6100237B6113
:1006AC000023BB6107F110031946054800F030FA2E
:1006BC0000BF2037BD4680BD00380140001002400D
:1006CC000008014080B400AF00BFFDE780B400AF6C
:1006DC0000BFFDE780B400AF00BFFDE780B400AF02
:1006EC0000BFFDE780B400AF00BFFDE780B400AFF2
:1006FC0000BFBD4680BC704780B400AF00BFBD4694
:10070C0080BC704780B400AF00BFBD4680BC704752
:10071C0080B500AF00F0D8F800BF80BD80B586B0C2
:10072C0000AF7860144A154BD31A7B617B693B612F
:10073C00134B1B68002B02D1114B124A1A60104B41
:10074C001A687B6813443A699A4207D201F0F4FCA8
:10075C0003460C221A604FF0FF3309E0084B1B686C
:10076C00FB60074B1A687B681344054A1360FB68EF
:10077C0018461837BD4680BD002800200004000034
:10078C00240100207802002080B400AF154B1B68B8
:10079C00144A43F001031360124B5A681149124B6F
:1007AC0013404B600F4B1B680E4A23F0847323F4E9
:1007BC00803313600B4B1B680A4A23F480231360AD
:1007CC00084B5B68074A23F4FE035360054B4FF458
:1007DC001F029A60054B4FF000629A6000BFBD4645
:1007EC0080BC7047001002400000FFF800ED00E0F4
:1007FC00002103E00B4B5B58435004310A480B4B70
:10080C0042189A42F6D30A4A02E0002342F8043B0B
:10081C00084B9A42F9D3FFF7B7FF01F093FCFFF7AF
:10082C004BFD7047F02B0008000000205C000020FE
:10083C005C00002074020020FEE7000080B500AFD1
:10084C00084B1B68074A43F010031360032000F0A9
:10085C002BF90F2000F008F8FFF76CFE0023184668
:10086C0080BD00BF0020024080B582B000AF786030
:10087C00124B1A68124B1B7819464FF47A73B3FB60
:10088C00F1F3B2FBF3F3184600F035F90346002BF5
:10089C0001D001230EE07B680F2B0AD80022796867
:1008AC004FF0FF3000F00BF9064A7B681360002311
:1008BC0000E0012318460837BD4680BD000000202B
:1008CC00080000200400002080B400AF054B1B780A
:1008DC001A46054B1B681344034A136000BFBD4600
:1008EC0080BC7047080000202801002080B400AFB5
:1008FC00024B1B681846BD4680BC7047280100207F
:10090C0080B584B000AF7860FFF7F0FFB8607B680B
:10091C00FB60FB68B3F1FF3F05D00A4B1B781A460E
:10092C00FB681344FB6000BFFFF7E0FF0246BB68A7
:10093C00D31AFA689A42F7D800BF00BF1037BD46E9
:10094C0080BD00BF0800002080B485B000AF786087
:10095C007B6803F00703FB600C4BDB68BB60BA6879
:10096C004FF6FF031340BB60FB681A02BB681343CE
:10097C0043F0BF6343F40033BB60044ABB68D360ED
:10098C0000BF1437BD4680BC704700BF00ED00E0CF
:10099C0080B400AF044BDB681B0A03F00703184656
:1009AC00BD4680BC704700BF00ED00E080B483B052
:1009BC0000AF03463960FB7197F90730002B0ADB57
:1009CC003B68DAB20C4997F907301201D2B20B44EA
:1009DC0083F800230AE03B68DAB20849FB7903F09C
:1009EC000F03043B1201D2B20B441A7600BF0C3732
:1009FC00BD4680BC704700BF00E100E000ED00E0A8
:100A0C0080B489B000AFF860B9607A60FB6803F01D
:100A1C000703FB61FB69C3F10703042B28BF042305
:100A2C00BB61FB690433062B02D9FB69033B00E075
:100A3C0000237B614FF0FF32BB6902FA03F3DA4308
:100A4C00BB681A407B699A404FF0FF317B6901FA11
:100A5C0003F3D9437B680B40134318462437BD4638
:100A6C0080BC704780B582B000AF78607B68013B7A
:100A7C00B3F1807F01D301230FE00A4A7B68013B6D
:100A8C0053600F214FF0FF30FFF790FF054B002212
:100A9C009A60044B07221A60002318460837BD469B
:100AAC0080BD00BF10E000E080B582B000AF786080
:100ABC007868FFF749FF00BF0837BD4680BD80B599
:100ACC0086B000AF0346B9607A60FB7300237B618C
:100ADC00FFF75EFF78617A68B9687869FFF790FF75
:100AEC00024697F90F3011461846FFF75FFF00BF1B
:100AFC001837BD4680BD80B582B000AF786078688D
:100B0C00FFF7B0FF034618460837BD4680BD00000E
:100B1C0080B48BB000AF7860396000237B62002317
:100B2C003B6261E101227B6A02FA03F3FB613B68E1
:100B3C001B68FA691340BB61BA69FB699A4240F0C1
:100B4C0050813B685B68974A93425ED0954A9342CA
:100B5C0075D8954A934258D0934A93426FD8934A8A
:100B6C00934252D0914A934269D8914A93424CD0C5
:100B7C008F4A934263D88F4A934246D08D4A934210
:100B8C005DD8122B2AD8122B59D801A252F823F077
:100B9C00170C0008F10B0008030C0008450C0008AA
:100BAC004B0C00084B0C00084B0C00084B0C0008BD
:100BBC004B0C00084B0C00084B0C00084B0C0008AD
:100BCC004B0C00084B0C00084B0C00084B0C00089D
:100BDC004B0C0008F90B00080D0C0008764A9342E8
:100BEC0013D02CE03B68DB683B6229E03B68DB6898
:100BFC0004333B6224E03B68DB6808333B621FE054
:100C0C003B68DB680C333B621AE03B689B68002B4B
:100C1C0002D104233B6213E03B689B68012B05D196
:100C2C0008233B627B68FA691A6109E008233B627E
:100C3C007B68FA695A6103E000233B6200E000BF65
:100C4C00BB69FF2B01D87B6801E07B6804337B61B7
:100C5C00BB69FF2B02D87B6A9B0002E07B6A083BD6
:100C6C009B003B617B691A680F213B6901FA03F316
:100C7C00DB431A40396A3B6901FA03F31A437B6977
:100C8C001A603B685B6803F08053002B00F0A9806E
:100C9C004A4B9B69494A43F001039361474B9B695B
:100CAC0003F00103BB60BB68454A7B6A9B080233B7
:100CBC0052F82330FB607B6A03F003039B000F2286
:100CCC0002FA03F3DB43FA681340FB607B683D4A8E
:100CDC0093420DD07B683C4A934207D07B683B4AD9
:100CEC00934201D1022304E0032302E0012300E03C
:100CFC0000237A6A02F0030292009340FA681343CD
:100D0C00FB602F497B6A9B080233FA6841F8232069
:100D1C003B685B6803F48033002B06D02C4B1A68BD
:100D2C002B49BB6913430B6006E0294B1A68BB695E
:100D3C00DB43274913400B603B685B6803F40033CB
:100D4C00002B06D0224B5A682149BB6913434B60D8
:100D5C0006E01F4B5A68BB69DB431D4913404B60CF
:100D6C003B685B6803F48013002B06D0184B9A6821
:100D7C001749BB6913438B6006E0154B9A68BB6936
:100D8C00DB43134913408B603B685B6803F400132F
:100D9C00002B1FD00E4BDA680D49BB691343CB6097
:100DAC001FE000BF000032100000311000002210C4
:100DBC000000211000001210000011100010024061
:100DCC000000014000080140000C014000100140EF
:100DDC00000401400B4BDA68BB69DB430949134043
:100DEC00CB607B6A01337B623B681A687B6A22FAB0
:100DFC0003F3002B7FF496AE00BF00BF2C37BD462B
:100E0C0080BC70470004014080B483B000AF7860B0
:100E1C000B467B8013467B707B78002B03D07A8843
:100E2C007B681A6103E07B881A047B681A6100BF37
:100E3C000C37BD4680BC704780B586B000AF78607B
:100E4C007B68002B01D1012372E27B681B6803F0E5
:100E5C000103002B00F08780924B5B6803F00C03BE
:100E6C00042B0CD08F4B5B6803F00C03082B12D1B6
:100E7C008C4B5B6803F48033B3F5803F0BD1894B0B
:100E8C001B6803F40033002B6CD07B685B68002B71
:100E9C0068D101234CE27B685B68B3F5803F06D1D7
:100EAC00804B1B687F4A43F4803313602EE07B68D1
:100EBC005B68002B0CD17B4B1B687A4A23F4803384
:100ECC001360784B1B68774A23F4802313601DE072
:100EDC007B685B68B3F5A02F0CD1724B1B68714A11
:100EEC0043F4802313606F4B1B686E4A43F48033CA
:100EFC0013600BE06B4B1B686A4A23F4803313605E
:100F0C00684B1B68674A23F4802313607B685B681B
:100F1C00002B13D0FFF7EAFC386108E0FFF7E6FC82
:100F2C0002463B69D31A642B01D9032300E25D4BC3
:100F3C001B6803F40033002BF0D014E0FFF7D6FC51
:100F4C00386108E0FFF7D2FC02463B69D31A642BE8
:100F5C0001D90323ECE1534B1B6803F40033002B42
:100F6C00F0D100E000BF7B681B6803F00203002B8C
:100F7C0063D04C4B5B6803F00C03002B0BD0494B3C
:100F8C005B6803F00C03082B1CD1464B5B6803F425
:100F9C008033002B16D1434B1B6803F00203002B4C
:100FAC0005D07B681B69012B01D00123C0E13D4BAF
:100FBC001B6823F0F8027B685B69DB00394913433B
:100FCC000B603AE07B681B69002B20D0364B01226A
:100FDC001A60FFF78BFC386108E0FFF787FC0246CC
:100FEC003B69D31A022B01D90323A1E12D4B1B68BA
:100FFC0003F00203002BF0D02A4B1B6823F0F802FD
:10100C007B685B69DB00274913430B6015E0264BBB
:10101C0000221A60FFF76AFC386108E0FFF766FCF3
:10102C0002463B69D31A022B01D9032380E11D4BE5
:10103C001B6803F00203002BF0D17B681B6803F0E4
:10104C000803002B3AD07B689B69002B19D0174BF7
:10105C0001221A60FFF74AFC386108E0FFF746FCF2
:10106C0002463B69D31A022B01D9032360E10D4BD5
:10107C005B6A03F00203002BF0D0012000F0D8FAD9
:10108C001CE00A4B00221A60FFF730FC38610FE0BD
:10109C00FFF72CFC02463B69D31A022B08D9032319
:1010AC0046E100BF00100240000042428004424270
:1010BC00924B5B6A03F00203002BE9D17B681B683F
:1010CC0003F00403002B00F0A6800023FB758B4B70
:1010DC00DB6903F08053002B0DD1884BDB69874A09
:1010EC0043F08053D361854BDB6903F08053BB60C5
:1010FC00BB680123FB75824B1B6803F48073002BC8
:10110C0018D17F4B1B687E4A43F480731360FFF742
:10111C00EDFB386108E0FFF7E9FB02463B69D31AA7
:10112C00642B01D9032303E1754B1B6803F4807313
:10113C00002BF0D07B68DB68012B06D16F4B1B6A50
:10114C006E4A43F0010313622DE07B68DB68002BD1
:10115C000CD16A4B1B6A694A23F001031362674B7B
:10116C001B6A664A23F0040313621CE07B68DB688D
:10117C00052B0CD1614B1B6A604A43F004031362CC
:10118C005E4B1B6A5D4A43F0010313620BE05B4B41
:10119C001B6A5A4A23F001031362584B1B6A574AC5
:1011AC0023F0040313627B68DB68002B15D0FFF778
:1011BC009DFB38610AE0FFF799FB02463B69D31AA5
:1011CC0041F28832934201D90323B1E04B4B1B6AA5
:1011DC0003F00203002BEED014E0FFF787FB38611D
:1011EC000AE0FFF783FB02463B69D31A41F28832CF
:1011FC00934201D903239BE0404B1B6A03F002038B
:10120C00002BEED1FB7D012B05D13C4BDB693B4A1E
:10121C0023F08053D3617B68DB69002B00F087805F
:10122C00364B5B6803F00C03082B61D07B68DB69E1
:10123C00022B46D1334B00221A60FFF757FB386163
:10124C0008E0FFF753FB02463B69D31A022B01D986
:10125C0003236DE0294B1B6803F00073002BF0D1C6
:10126C007B681B6AB3F5803F08D1244B5B6823F481
:10127C0000327B689B68214913434B601F4B5B68B2
:10128C0023F474127B68196A7B685B6A0B431B49F5
:10129C0013434B601B4B01221A60FFF727FB38618D
:1012AC0008E0FFF723FB02463B69D31A022B01D956
:1012BC0003233DE0114B1B6803F00073002BF0D0AF
:1012CC0035E0104B00221A60FFF710FB386108E084
:1012DC00FFF70CFB02463B69D31A022B01D90323FF
:1012EC0026E0064B1B6803F00073002BF0D11EE0C8
:1012FC007B68DB69012B07D1012319E00010024048
:10130C0000700040600042420B4B5B68FB60FB6866
:10131C0003F480327B681B6A9A4206D1FB6803F4A3
:10132C0070127B685B6A9A4201D0012300E00023B3
:10133C0018461837BD4680BD0010024080B584B0F9
:10134C0000AF786039607B68002B01D10123D0E0BD
:10135C006A4B1B6803F007033A689A4210D9674B33
:10136C001B6823F0070265493B6813430B60634B12
:10137C001B6803F007033A689A4201D00123B8E0D6
:10138C007B681B6803F00203002B20D07B681B6872
:10139C0003F00403002B05D0594B5B68584A43F407
:1013AC00E06353607B681B6803F00803002B05D0D7
:1013BC00534B5B68524A43F460535360504B5B6829
:1013CC0023F0F0027B689B684D4913434B607B68AC
:1013DC001B6803F00103002B40D07B685B68012B7A
:1013EC0007D1474B1B6803F40033002B15D10123A5
:1013FC007FE07B685B68022B07D1414B1B6803F0D5
:10140C000073002B09D1012373E03D4B1B6803F0E3
:10141C000203002B01D101236BE0394B5B6823F0F5
:10142C0003027B685B68364913434B60FFF75EFA37
:10143C00F8600AE0FFF75AFA0246FB68D31A41F249
:10144C008832934201D9032353E02D4B5B6803F0A0
:10145C000C027B685B689B009A42EBD1274B1B68A4
:10146C0003F007033A689A4210D2244B1B6823F00E
:10147C00070222493B6813430B60204B1B6803F0A7
:10148C0007033A689A4201D0012332E07B681B685B
:10149C0003F00403002B08D0194B5B6823F4E062C3
:1014AC007B68DB68164913434B607B681B6803F051
:1014BC000803002B09D0124B5B6823F460527B6845
:1014CC001B69DB000E4913434B6000F021F8024608
:1014DC000B4B5B681B0903F00F030A49CB5C22FA28
:1014EC0003F3094A1360094B1B681846FFF7BCF954
:1014FC00002318461037BD4680BD00BF00200240B7
:10150C0000100240942B0008000000200400002072
:10151C0090B48AB000AF294B3C1D0FCB84E80F0070
:10152C0040F201233B800023FB610023BB610023BD
:10153C007B6200237B6100233B62214B5B68FB6178
:10154C00FB6903F00C03042B02D0082B03D02BE017
:10155C001C4B3B622BE0FB699B0C03F00F03283305
:10156C003B4413F8243C7B61FB6903F48033002B70
:10157C0012D0134B5B685B0C03F0010328333B4424
:10158C0013F8283CBB617B690E4A03FB02F2BB6972
:10159C00B2FBF3F37B6204E07B690B4A02FB03F3BF
:1015AC007B627B6A3B6202E0064B3B6200BF3B6A9C
:1015BC0018462837BD4690BC704700BF842B0008E6
:1015CC000010024000127A0000093D0080B400AF08
:1015DC00024B1B681846BD4680BC704700000020BB
:1015EC0080B500AFFFF7F2FF0246054B5B681B0AA4
:1015FC0003F007030349CB5C22FA03F3184680BDC2
:10160C0000100240A42B000880B500AFFFF7DEFFEE
:10161C000246054B5B68DB0A03F007030349CB5C0E
:10162C0022FA03F3184680BD00100240A42B0008D8
:10163C0080B485B000AF78600A4B1B680A4AA2FBE5
:10164C0003235B0A7A6802FB03F3FB6000BFFB68B1
:10165C005A1EFA60002BF9D100BF00BF1437BD46EB
:10166C0080BC704700000020D34D621080B582B062
:10167C0000AF78607B68002B01D1012353E07B68BD
:10168C0000229A627B6893F85130DBB2002B06D1B2
:10169C007B68002283F850207868FEF77DFF7B681A
:1016AC00022283F851207B681B681A687B681B68D0
:1016BC0022F040021A607B685A687B689B681A4368
:1016CC007B68DB681A437B681B691A437B685B6920
:1016DC001A437B689B6903F400731A437B68DB69CC
:1016EC001A437B681B6A42EA03017B689A6A7B682F
:1016FC001B680A431A607B689B691A0C7B681B6821
:10170C0002F004025A607B681B68DA697B681B680C
:10171C0022F40062DA617B6800225A657B68012240
:10172C0083F85120002318460837BD4680BD80B58C
:10173C008CB000AFF860B9607A607B800123FB62EB
:10174C00002387F82B30FB6893F85030012B01D124
:10175C0002238AE1FB68012283F85020FFF7C6F8C8
:10176C007862FB6893F8513087F82330FB685B682C
:10177C00FB617B887B8397F82330012B0FD0FB69AF
:10178C00B3F5827F07D1FB689B68002B03D197F8D8
:10179C002330042B03D0022387F82B305BE1BB688A
:1017AC00002B05D07B68002B02D07B88002B03D14B
:1017BC00012387F82B304EE1FB6893F85130DBB2F4
:1017CC00042B03D0FB68052283F85120FB68002210
:1017DC005A65FB687A689A63FB687A88DA87FB68D3
:1017EC007A889A87FB68BA681A63FB687A88DA8603
:1017FC00FB687A889A86FB6800221A64FB680022D0
:10180C005A64FB681B681B6803F04003402B07D02D
:10181C00FB681B681A68FB681B6842F040021A6080
:10182C00FB68DB68B3F5006F78D1FB685B68002B55
:10183C0002D07B8B012B66D1FB681B6B1A88FB6873
:10184C001B68DA60FB681B6B9A1CFB681A63FB68ED
:10185C00DB8E9BB2013B9AB2FB68DA8653E0FB68E5
:10186C001B689B6803F00203022B1BD1FB68DB8E09
:10187C009BB2002B16D0FB6A012B13D1FB681B6BA0
:10188C001A88FB681B68DA60FB681B6B9A1CFB6888
:10189C001A63FB68DB8E9BB2013B9AB2FB68DA865B
:1018AC000023FB62FB681B689B6803F00103012BA0
:1018BC0019D1FB68DB8F9BB2002B14D0FB681B6823
:1018CC00DA68FB689B6B92B21A80FB689B6B9A1C64
:1018DC00FB689A63FB68DB8F9BB2013B9AB2FB6897
:1018EC00DA870123FB62FFF701F802467B6AD31A01
:1018FC00BA6B9A4207D8BB6BB3F1FF3F03D00323FB
:10190C0087F82B30A7E0FB68DB8E9BB2002BA6D1AF
:10191C00FB68DB8F9BB2002BA1D17CE0FB685B6882
:10192C00002B02D07B8B012B6BD1FB681A6BFB68F5
:10193C001B680C3312781A70FB681B6B5A1CFB6803
:10194C001A63FB68DB8E9BB2013B9AB2FB68DA86AA
:10195C0057E0FB681B689B6803F00203022B1CD149
:10196C00FB68DB8E9BB2002B17D0FB6A012B14D1CA
:10197C00FB681A6BFB681B680C3312781A70FB68D7
:10198C001B6B5A1CFB681A63FB68DB8E9BB2013B1A
:10199C009AB2FB68DA860023FB62FB681B689B68C3
:1019AC0003F00103012B19D1FB68DB8F9BB2002BD9
:1019BC0014D0FB681B68DA68FB689B6BD2B21A7098
:1019CC00FB689B6B5A1CFB689A63FB68DB8F9BB2B2
:1019DC00013B9AB2FB68DA870123FB62FEF786FFB4
:1019EC0002467B6AD31ABA6B9A4203D8BB6BB3F12B
:1019FC00FF3F02D1BB6B002B03D1032387F82B30A5
:101A0C0029E0FB68DB8E9BB2002BA2D1FB68DB8F3D
:101A1C009BB2002B9DD17A6AB96BF86800F093F8F1
:101A2C000346002B06D0012387F82B30FB682022BD
:101A3C005A6510E0FB689B68002B0BD100237B617F
:101A4C00FB681B68DB687B61FB681B689B687B61C0
:101A5C007B6900E000BFFB68012283F85120FB6822
:101A6C00002283F8502097F82B3018463037BD46AB
:101A7C0080BD80B584B000AFF860B9603B601346A0
:101A8C00FB714CE03B68B3F1FF3F48D0FEF72EFFF3
:101A9C000246BB69D31A3A689A4202D93B68002BBA
:101AAC003DD1FB681B685A68FB681B6822F0E0029A
:101ABC005A60FB685B68B3F5827F11D1FB689B6849
:101ACC00B3F5004F04D0FB689B68B3F5806F07D16A
:101ADC00FB681B681A68FB681B6822F040021A60DE
:101AEC00FB689B6AB3F5005F0FD1FB681B681A6833
:101AFC00FB681B6822F400521A60FB681B681A68AA
:101B0C00FB681B6842F400521A60FB68012283F8E0
:101B1C005120FB68002283F8502003230FE0FB6860
:101B2C001B689A68BB681340BA689A420CBF0123C1
:101B3C000023DBB21A46FB799A42A3D10023184644
:101B4C001037BD4680BD80B586B002AFF860B96075
:101B5C007A607B680093BB6800228021F868FFF7ED
:101B6C0088FF0346002B07D0FB685B6D43F0200217
:101B7C00FB685A65032300E0002318461037BD4666
:101B8C0080BD80B582B000AF78607B68002B01D13E
:101B9C0001233FE07B6893F83930DBB2002B06D190
:101BAC007B68002283F838207868FEF73FFD7B685D
:101BBC00242283F839207B681B68DA687B681B68F1
:101BCC0022F40052DA60786800F0B2F97B681B6886
:101BDC001A697B681B6822F490421A617B681B6847
:101BEC005A697B681B6822F02A025A617B681B6861
:101BFC00DA687B681B6842F40052DA607B6800226A
:101C0C00DA637B68202283F839207B68202283F8F2
:101C1C003A20002318460837BD4680BD80B588B0F1
:101C2C0002AFF860B9603B601346FB8000237B6118
:101C3C00FB6893F83930DBB2202B40F08380BB6813
:101C4C00002B02D0FB88002B01D101237BE0FB6829
:101C5C0093F83830012B01D1022374E0FB68012288
:101C6C0083F83820FB680022DA63FB68212283F8B2
:101C7C003920FEF73BFE7861FB68FA889A84FB6892
:101C8C00FA88DA8442E0FB68DB8C9BB2013B9AB2A7
:101C9C00FB68DA84FB689B68B3F5805F22D13B68F4
:101CAC0000937B6900228021F86800F0F6F8034667
:101CBC00002B01D0032346E0BB683B613B691B88CA
:101CCC001A46FB681B68C2F308025A60FB681B6962
:101CDC00002B03D1BB680233BB6017E0BB68013338
:101CEC00BB6013E03B6800937B6900228021F8689D
:101CFC0000F0D3F80346002B01D0032323E0BB688C
:101D0C005A1CBA601A78FB681B685A60FB68DB8C3B
:101D1C009BB2002BB7D13B6800937B69002240211A
:101D2C00F86800F0BAF80346002B01D003230AE050
:101D3C00FB68202283F83920FB68002283F83820C6
:101D4C00002300E0022318461837BD4680BD80B53D
:101D5C0088B002AFF860B9603B601346FB8000238B
:101D6C007B61FB6893F83A30DBB2202B40F090801B
:101D7C00BB68002B02D0FB88002B01D1012388E02B
:101D8C00FB6893F83830012B01D1022381E0FB680A
:101D9C00012283F83820FB680022DA63FB682222D8
:101DAC0083F83A20FEF7A2FD7861FB68FA889A85E1
:101DBC00FB68FA88DA855CE0FB68DB8D9BB2013B43
:101DCC009AB2FB68DA85FB689B68B3F5805F2BD110
:101DDC003B6800937B6900222021F86800F05DF8D5
:101DEC000346002B01D0032353E0BB683B61FB6827
:101DFC001B69002B0CD1FB681B685B689BB2C3F39F
:101E0C0008039AB23B691A80BB680233BB6030E0AE
:101E1C00FB681B685B689BB2DBB29AB23B691A80A9
:101E2C00BB680133BB6024E03B6800937B690022F4
:101E3C002021F86800F031F80346002B01D0032371
:101E4C0027E0FB681B69002B08D1FB681B685968ED
:101E5C00BB685A1CBA60CAB21A700AE0FB681B68ED
:101E6C005B68DAB2BB68591CB96002F07F02D2B26F
:101E7C001A70FB68DB8D9BB2002B9DD1FB68202276
:101E8C0083F83A20FB68002283F83820002300E016
:101E9C00022318461837BD4680BD80B584B000AF0C
:101EAC00F860B9603B601346FB712CE0BB69B3F181
:101EBC00FF3F28D0BB69002B07D0FEF717FD024669
:101ECC003B68D31ABA699A421DD2FB681B68DA6860
:101EDC00FB681B6822F4D072DA60FB681B685A69D5
:101EEC00FB681B6822F001025A61FB68202283F810
:101EFC003920FB68202283F83A20FB68002283F803
:101F0C00382003230FE0FB681B681A68BB6813407A
:101F1C00BA689A420CBF01230023DBB21A46FB7944
:101F2C009A42C3D0002318461037BD4680BD00002E
:101F3C0080B584B000AF78607B681B681B6923F4A4
:101F4C0040517B68DA687B681B680A431A617B68BE
:101F5C009A687B681B691A437B685B691343FB6057
:101F6C007B681B68DB6823F4B05323F00C037A689E
:101F7C001268F9680B43D3607B681B685B6923F4B8
:101F8C0040717B689A697B681B680A435A617B685D
:101F9C001B68524A93424ED1FFF736FBB860BA68C1
:101FAC0013469B0013449A001A447B685B689B00A1
:101FBC00B2FBF3F34A4AA2FB03235B091901BA688B
:101FCC0013469B0013449A001A447B685B689B0081
:101FDC00B2FBF3F2424BA3FB02035B09642000FB50
:101FEC0003F3D31A1B0132333D4AA2FB03235B09D3
:101FFC0003F0F0031944BA6813469B0013449A008B
:10200C001A447B685B689B00B2FBF3F2344BA3FB76
:10201C0002035B09642000FB03F3D31A1B01323368
:10202C002F4AA2FB03235B0903F00F027B681B689A
:10203C000A449A604DE0FFF7D3FAB860BA681346C9
:10204C009B0013449A001A447B685B689B00B2FBAC
:10205C00F3F3234AA2FB03235B091901BA68134665
:10206C009B0013449A001A447B685B689B00B2FB8C
:10207C00F3F21B4BA3FB02035B09642000FB03F38D
:10208C00D31A1B013233164AA2FB03235B0903F05C
:10209C00F0031944BA6813469B0013449A001A447F
:1020AC007B685B689B00B2FBF3F20D4BA3FB020356
:1020BC005B09642000FB03F3D31A1B013233084A7B
:1020CC00A2FB03235B0903F00F027B681B680A4425
:1020DC009A6000BF1037BD4680BD00BF003801407C
:1020EC001F85EB510EB46FF0004110B500249DB06C
:1020FC001FAB02900690079104910948094953F8C7
:10210C00042B0591006802A901931B9400F092F92D
:10211C00029B1C701DB0BDE8104003B0704700BF9F
:10212C000C0000200802FFFF03460244934200D13A
:10213C00704703F8011BF9E7014B1868704700BFA3
:10214C000C00002070B500260C4D0D4C641BA41027
:10215C00A64209D100F076FC00260A4D0A4C641BFD
:10216C00A410A64205D170BD55F8043B9847013622
:10217C00EEE755F8043B98470136F2E7E82B0008E8
:10218C00E82B0008E82B0008EC2B00087047704780
:10219C0038B50546002940D051F8043C0C1F002BE3
:1021AC00B8BFE41800F0DEF81C4A136833B963605A
:1021BC0014602846BDE8384000F0DAB8A34208D9CC
:1021CC00206821188B4201BF19685B6809182160CF
:1021DC00EDE71A465B680BB1A342FAD911685018A7
:1021EC00A0420BD120680144501883421160E0D109
:1021FC0018685B68084410605360DAE702D90C2356
:10220C002B60D6E7206821188B4201BF19685B68E8
:10221C000918216063605460CBE738BD7002002060
:10222C0070B50F4E0C463168054611B900F0A8FB8D
:10223C0030602146284600F0A3FB431C03D14FF02D
:10224C00FF34204670BDC41C24F00304A042F8D017
:10225C00211A284600F094FB0130F2D1EFE700BFC1
:10226C006C0200202DE9F843CD1C25F00305083540
:10227C000C2D38BF0C25002D064601DBA94204D9D4
:10228C000C2333600020BDE8F883DFF8D48000F025
:10229C0069F8D8F800301C4644BB29463046FFF795
:1022AC00BFFF431C044658D1D8F800402746002FE6
:1022BC0043D1002C4BD023683946304604EB03093C
:1022CC0000F05EFB814542D1216830466D1A2946EB
:1022DC00FFF7A6FF01303AD023682B442360D8F8CF
:1022EC0000305A6862BBC8F800700FE02268521BBD
:1022FC0020D40B2A17D96119A342256018BF596045
:10230C00636808BFC8F8001062514B60304600F09B
:10231C002FF804F10B00231D20F00700C21A1CBF7C
:10232C001B1AA350AFE76268A3420CBFC8F8002089
:10233C005A60EBE723466468AEE73C467F68B6E735
:10234C001A465B68A342FBD100235360DEE70C23E3
:10235C003046336000F00CF894E70560D6E700BF18
:10236C00700200200148FFF711BF00BF6802002077
:10237C000148FFF70CBF00BF680200202DE9F047B1
:10238C001F468E688246BE420C4690460B682DD87E
:10239C00B1F90C2012F4906F26D06569096905EB30
:1023AC004505A3EB010905EBD5757B1C4B446D1062
:1023BC009D4238BF1D46530527D52946FFF752FFCE
:1023CC00064660B34A46216900F0F8FAA38923F463
:1023DC00906343F08003A38126614E4426603E4601
:1023EC006561A5EB0905A560BE4200D93E463246A3
:1023FC004146206800F0AAFA0020A3689B1BA3604A
:10240C00236833442360BDE8F0872A4600F0E4FAE1
:10241C0006460028E0D150462169FFF7B9FE0C238F
:10242C00CAF80030A3894FF0FF3043F04003A3817A
:10243C00E9E700002DE9F04F98468B8907461B060B
:10244C000D4614469DB010D50B6973B94021FFF7AA
:10245C0009FF2860286130B90C233B604FF0FF3036
:10246C001DB0BDE8F08F40236B610023099320233E
:10247C008DF8293030234FF00109CDF80C80DFF8AE
:10248C0098818DF82A3023469A4613F8012B0AB10D
:10249C00252AF9D1BAEB040B0BD05B462246294610
:1024AC003846FFF76BFF013000F0A780099A5A44B9
:1024BC0009929AF80030002B00F09F8000234FF017
:1024CC00FF32CDE905230AF1010A049307938DF835
:1024DC0053301A935446052214F8011B4E4800F051
:1024EC005FFA049AD8B9D00644BF20238DF8533034
:1024FC00110744BF2B238DF853309AF800302A2B48
:10250C0015D0544600204FF00A0C079A214611F8BA
:10251C00013B303B092B4BD9B0B1079214E0A0EB37
:10252C00080309FA03F31343A2460493D2E7039B6F
:10253C00191D1B680391002BBBBF5B4242F00202CA
:10254C0007930793B8BF049223782E2B0AD1637894
:10255C002A2B32D1039B02341A1D1B68039243EAC7
:10256C00E3730593DFF8B4A003225046217800F002
:10257C0017FA38B14022049BA0EB0A0082401343A7
:10258C000134049314F8011B062225488DF82810F9
:10259C0000F006FA002836D0224B1BBB039B0733F6
:1025AC0023F0070308330393099B334409936AE729
:1025BC000C4601200CFB0232A8E700234FF00A0C5A
:1025CC00194601340593204610F8012B303A092A9C
:1025DC0003D9002BC6D00591C4E7044601230CFB9C
:1025EC000121F0E703AB00932A4638460E4B04A9B1
:1025FC00AFF30080421C0646D6D1AB895B063FF593
:10260C002DAF09982CE703AB00932A463846064BAE
:10261C0004A900F07DF8EDE7AC2B0008B22B000804
:10262C00B62B000800000000892300082DE9F047B4
:10263C00164698468A680B6907469342B8BF1346FC
:10264C00336091F843200C46DDF820900AB1013339
:10265C0033602368990642BF3368023333602568C0
:10266C0015F0060506D104F1190AE36832689B1AC5
:10267C00AB422BDC94F843302268003B18BF01239B
:10268C00920630D44146384604F14302C847013023
:10269C0023D02368226903F00603042B14BF002502
:1026AC0033684FF0000608BFE56804F11A0408BF50
:1026BC00ED1A54F8123C08BF25EAE5759342C4BFE5
:1026CC009B1AED18B5421AD1002008E0012352469E
:1026DC0041463846C847013003D14FF0FF30BDE8C2
:1026EC00F0870135C1E73020E11881F843005A1C0E
:1026FC0094F845102244023382F84310C2E70123B8
:10270C00224641463846C8470130E6D00136D9E763
:10271C002DE9FF470F7E9146782F80460C469A464E
:10272C000C9E01F1430207D8622F0AD8002F00F04B
:10273C00D180582F00F0B88004F1420684F8427022
:10274C003AE0A7F16303152BF6D801A151F823F059
:10275C00B5270008C92700084527000845270008A9
:10276C004527000845270008C92700084527000809
:10277C00452700084527000845270008C7280008FA
:10278C00F327000881280008452700084527000882
:10279C00E928000845270008F3270008452700080A
:1027AC00452700088928000833681A1D1B68326009
:1027BC0004F1420684F8423001239CE0336820681F
:1027CC00191D3160060601D51D6803E04506FBD5D1
:1027DC00B3F90050002D03DA2D236D4284F84330F9
:1027EC000A23584811E021683368080653F8045B43
:1027FC0002D4490648BFADB26F2F336014BF0A2311
:10280C0008235048002184F843106668002EA66007
:10281C0005DB21682E4321F0040121604BD01646C4
:10282C00B5FBF3F103FB1157C75D06F8017D2F468D
:10283C00BB420D46F4D9082B0BD12368DF0708D512
:10284C00236961689942DEBF302306F8013C06F12A
:10285C00FF36921B22614B4621464046CDF800A024
:10286C0003AAFFF7E3FE01304AD14FF0FF3004B06A
:10287C00BDE8F087236843F02003236078273248B3
:10288C0084F84570236831681F0651F8045B02D444
:10289C005F0648BFADB23160D90744BF43F0200397
:1028AC0023601DB11023ADE72648E9E7236823F028
:1028BC0020032360F6E71646BDE733682568181D2C
:1028CC00616930602E061B6801D5196002E068064C
:1028DC00FBD51980002316462361BCE73368002121
:1028EC001A1D32601E686268304600F059F808B153
:1028FC00801B606063682361002384F84330AAE77F
:10290C003246494640462369D0470130ADD0236852
:10291C009B0713D4E068039B9842B8BF1846A6E700
:10292C000123324649464046D04701309DD00135FF
:10293C00E36803995B1AAB42F2DCEBE7002504F188
:10294C001906F5E7BD2B0008CE2B0008884210B500
:10295C0001EB020402D98442234607D8431EA1424C
:10296C0008D011F8012B03F8012FF8E701460244B7
:10297C008A4200D110BD13F8014D02F8014DF7E762
:10298C0038B50023054D044608462B60FDF7C6FEFE
:10299C00431C02D12B6803B1236038BD64020020B4
:1029AC00034610B5C9B202449342184601D1002027
:1029BC0003E0047801338C42F6D110BD0A449142F5
:1029CC0000F1FF3300D1704710B511F8014B914263
:1029DC0003F8014FF9D110BD2DE9F041074614461B
:1029EC000D4621B91146BDE8F041FFF73BBC2AB9B1
:1029FC00FFF7CEFB25462846BDE8F08100F01AF81B
:102A0C008442064602D8B4EB500FF4D8214638461F
:102A1C00FFF728FC804608B94546ECE7B44222464D
:102A2C00294628BF3246FFF7C9FF29463846FFF72B
:102A3C00AFFBF1E751F8043C181F002BBCBF0B583F
:102A4C00C0187047F8B500BFF8BC08BC9E4670476C
:0C2A5C00F8B500BFF8BC08BC9E467047EF
:102A68000D0A436173652049443A20307825303493
:102A7800580D0A566F6C746167653A20256C752E7F
:102A8800256C7520560D0A576865656C205370656E
:102A980065643A20256C75206B6D2F680D0A00005F
:102AA8000D0A496E76616C69642043617365212063
:102AB800456E7465722031202D20352E0D0A0000D8
:102AC8000D0A3D3D3D3D3D3D3D3D3D3D3D3D3D3D91
:102AD8003D3D3D3D3D3D3D3D3D3D3D3D3D3D3D3D1E
:102AE8000D0A00002020204D696C6573746F6E65B7
:102AF800203320535049204D61737465720D0A00CC
:102B08003D3D3D3D3D3D3D3D3D3D3D3D3D3D3D3DED
:102B18003D3D3D3D3D3D3D3D3D3D3D3D3D3D0D0A40
:102B280000000000456E746572204361736520499A
:102B3800442028312D35293A0D0A00000D0A0000DD
:102B48000D0A456E746572204361736520494420FF
:102B580028312D35293A0D0A000000000D0A496E6A
:102B680076616C696420696E7075742E20456E7488
:102B7800657220312D352E0D0A0000000203040570
:102B8800060708090A0B0C0D0E0F101000000000B4
:102B98000000000001020304060708090000000005
:102BA80001020304232D302B2000686C4C0065665D
:102BB8006745464700303132333435363738394186
:102BC800424344454600303132333435363738399C
:082BD8006162636465660000A0
:082BE0006CD5FF7F010000002D
:042BE80031010008AF
:042BEC000D010008CF
:102BF0000024F4001000000001000000100000207C
:102C0000000000002C01002094010020FC010020A5
:102C100000000000000000000000000000000000B4
:102C200000000000000000000000000000000000A4
:102C30000000000000000000000000000000000094
:0C2C400000000000000000000000000088
:04000005080007FDEB
:00000001FF
