:020000040800F2
:100000000028002031050008710400087904000868
:100010008104000889040008910400080000000021
:10002000000000000000000000000000990400082B
:10003000A504000800000000B1040008BD04000889
:100040007905000879050008790500087905000898
:100050007905000879050008790500087905000888
:100060007905000879050008790500087905000878
:100070007905000879050008790500087905000868
:100080007905000879050008790500087905000858
:100090007905000879050008790500087905000848
:1000A0007905000879050008790500087905000838
:1000B00079050008790500080000000079050008AE
:1000C0007905000800000000000000007905000824
:1000D0000000000079050008790500080000000014
:1000E000790500087905000879050008000000007E
:1000F0000000000000000000000000000000000000
:0C01000000000000000000005FF808F1A3
:10010C0010B5054C237833B9044B13B10448AFF345
:10011C0000800123237010BD2C0000200000000083
:10012C004018000808B5034B1BB103490348AFF353
:10013C00008008BD000000003000002040180008BE
:10014C0080B485B000AF0346FB800023FB81002305
:10015C00BB810023BB6022E02249BA6813465B00D6
:10016C0013445B000B441B88FA889A4214D11D4936
:10017C00BA6813465B0013445B000B4402331B88C4
:10018C00FB811849BA6813465B0013445B000B44AF
:10019C0004331B88BB8105E0BB680133BB60BB68C3
:1001AC00042BD9DDFB891A030F4B1340BA89C2F318
:1001BC000B0213430D4A13600C4B1B681B0CDAB279
:1001CC000B4B1A70094B1B681B0ADAB2084B5A709E
:1001DC00064B1B68DAB2064B9A7000BF1437BD464B
:1001EC0080BC70470000002000F0FF00AC00002035
:1001FC00A400002080B582B002AF00F0B9F900F085
:10020C0029F800F097F800F061F84FF0FF330093F5
:10021C0003230C4A0C490D4801F0B5F8094B1B7827
:10022C001BB21B021AB2074B5B781BB213431BB2F7
:10023C009AB2074B1A80064B1B881846FFF780FFB3
:10024C0000BFE2E7A0000020A4000020480000202E
:10025C00A800002080B590B000AF07F11803282249
:10026C000021184601F0B9FA3B1D00221A605A60B1
:10027C009A60DA601A610223BB610123BB6210230E
:10028C00FB6200237B6307F11803184600F032FC75
:10029C000346002B01D000F063F80F237B60002392
:1002AC00BB600023FB6000233B6100237B613B1D93
:1002BC000021184600F0A0FE0346002B01D000F0F0
:1002CC004FF800BF4037BD4680BD000080B500AF81
:1002DC00164B174A1A60154B00225A60134B00221A
:1002EC009A60124B0022DA60104B00221A610F4BFD
:1002FC0000225A610D4B00229A610C4B2822DA61C4
:10030C000A4B00221A62094B00225A62074B002248
:10031C009A62064B0A22DA62044800F0D3FF0346C5
:10032C00002B01D000F01CF800BF80BD480000205D
:10033C000030014080B483B000AF084B9B69074A82
:10034C0043F004039361054B9B6903F004037B604A
:10035C007B6800BF0C37BD4680BC70470010024064
:10036C0080B400AF72B600BF00BFFDE780B485B0AB
:10037C0000AF154B9B69144A43F001039361124B78
:10038C009B6903F00103BB60BB680F4BDB690E4A32
:10039C0043F08053D3610C4BDB6903F080537B60DB
:1003AC007B680A4B5B68FB60FB6823F0E063FB60D7
:1003BC00FB6843F08063FB60044AFB68536000BF3A
:1003CC001437BD4680BC704700100240000001404D
:1003DC0080B588B000AF786007F1100300221A6076
:1003EC005A609A60DA607B681B681B4A93422FD173
:1003FC001A4B9B69194A43F480539361174B9B69C1
:10040C0003F48053FB60FB68144B9B69134A43F065
:10041C0004039361114B9B6903F00403BB60BB683D
:10042C00B0233B6100237B610023BB6107F1100308
:10043C0019460B4800F0E2F940233B6102237B6133
:10044C000323FB6107F110031946054800F0D6F9A8
:10045C0000BF2037BD4680BD003001400010024077
:10046C000008014080B400AF00BFFDE780B400AFCE
:10047C0000BFFDE780B400AF00BFFDE780B400AF64
:10048C0000BFFDE780B400AF00BFFDE780B400AF54
:10049C0000BFBD4680BC704780B400AF00BFBD46F6
:1004AC0080BC704780B400AF00BFBD4680BC7047B5
:1004BC0080B500AF00F0A2F800BF80BD80B400AFE3
:1004CC00154B1B68144A43F001031360124B5A6816
:1004DC001149124B13404B600F4B1B680E4A23F013
:1004EC00847323F4803313600B4B1B680A4A23F488
:1004FC0080231360084B5B68074A23F4FE035360A8
:10050C00054B4FF41F029A60054B4FF000629A6046
:10051C0000BFBD4680BC7047001002400000FFF8D1
:10052C0000ED00E0002103E00B4B5B58435004311D
:10053C000A480B4B42189A42F6D30A4A02E00023AF
:10054C0042F8043B084B9A42F9D3FFF7B7FF01F08E
:10055C004DF9FFF74FFE704780180008000000208F
:10056C002C0000202C000020B4000020FEE700002E
:10057C0080B500AF084B1B68074A43F010031360AB
:10058C00032000F007F90F2000F008F8FFF7EEFE4B
:10059C000023184680BD00BF0020024080B582B009
:1005AC0000AF7860124B1A68124B1B7819464FF447
:1005BC007A73B3FBF1F3B2FBF3F3184600F011F9C5
:1005CC000346002B01D001230EE07B680F2B0AD8C9
:1005DC00002279684FF0FF3000F0E7F8064A7B689C
:1005EC001360002300E0012318460837BD4680BD88
:1005FC0020000020280000202400002080B400AF40
:10060C00054B1B781A46054B1B681344034A1360B1
:10061C0000BFBD4680BC704728000020B000002001
:10062C0080B400AF024B1B681846BD4680BC7047B7
:10063C00B000002080B485B000AF78607B6803F018
:10064C000703FB600C4BDB68BB60BA684FF6FF031B
:10065C001340BB60FB681A02BB68134343F0BF63D3
:10066C0043F40033BB60044ABB68D36000BF14374B
:10067C00BD4680BC704700BF00ED00E080B400AF09
:10068C00044BDB681B0A03F007031846BD4680BC0D
:10069C00704700BF00ED00E080B483B000AF0346AC
:1006AC003960FB7197F90730002B0ADB3B68DAB233
:1006BC000C4997F907301201D2B20B4483F800238E
:1006CC000AE03B68DAB20849FB7903F00F03043BFC
:1006DC001201D2B20B441A7600BF0C37BD4680BC57
:1006EC00704700BF00E100E000ED00E080B489B08D
:1006FC0000AFF860B9607A60FB6803F00703FB6138
:10070C00FB69C3F10703042B28BF0423BB61FB69FE
:10071C000433062B02D9FB69033B00E000237B6109
:10072C004FF0FF32BB6902FA03F3DA43BB681A409D
:10073C007B699A404FF0FF317B6901FA03F3D9438F
:10074C007B680B40134318462437BD4680BC70476A
:10075C0080B582B000AF78607B68013BB3F1807FDD
:10076C0001D301230FE00A4A7B68013B53600F2140
:10077C004FF0FF30FFF790FF054B00229A60044BBF
:10078C0007221A60002318460837BD4680BD00BFFB
:10079C0010E000E080B582B000AF78607868FFF7B9
:1007AC0049FF00BF0837BD4680BD80B586B000AF9D
:1007BC000346B9607A60FB7300237B61FFF75EFF31
:1007CC0078617A68B9687869FFF790FF024697F903
:1007DC000F3011461846FFF75FFF00BF1837BD46B4
:1007EC0080BD80B582B000AF78607868FFF7B0FF4D
:1007FC00034618460837BD4680BD000080B48BB058
:10080C0000AF7860396000237B6200233B6261E1BA
:10081C0001227B6A02FA03F3FB613B681B68FA69ED
:10082C001340BB61BA69FB699A4240F050813B6846
:10083C005B68974A93425ED0954A934275D8954A25
:10084C00934258D0934A93426FD8934A934252D0D2
:10085C00914A934269D8914A93424CD08F4A934221
:10086C0063D88F4A934246D08D4A93425DD8122B5F
:10087C002AD8122B59D801A252F823F003090008E8
:10088C00DD080008EF0800083109000837090008E6
:10089C00370900083709000837090008370900082C
:1008AC00370900083709000837090008370900081C
:1008BC00370900083709000837090008370900080C
:1008CC00E5080008F9080008764A934213D02CE09A
:1008DC003B68DB683B6229E03B68DB6804333B62C6
:1008EC0024E03B68DB6808333B621FE03B68DB6855
:1008FC000C333B621AE03B689B68002B02D104234B
:10090C003B6213E03B689B68012B05D108233B62DB
:10091C007B68FA691A6109E008233B627B68FA6913
:10092C005A6103E000233B6200E000BFBB69FF2B70
:10093C0001D87B6801E07B6804337B61BB69FF2BCA
:10094C0002D87B6A9B0002E07B6A083B9B003B6100
:10095C007B691A680F213B6901FA03F3DB431A40E8
:10096C00396A3B6901FA03F31A437B691A603B68E5
:10097C005B6803F08053002B00F0A9804A4B9B6905
:10098C00494A43F001039361474B9B6903F0010310
:10099C00BB60BB68454A7B6A9B08023352F8233024
:1009AC00FB607B6A03F003039B000F2202FA03F344
:1009BC00DB43FA681340FB607B683D4A93420DD0E1
:1009CC007B683C4A934207D07B683B4A934201D1F7
:1009DC00022304E0032302E0012300E000237A6AEF
:1009EC0002F0030292009340FA681343FB602F4914
:1009FC007B6A9B080233FA6841F823203B685B68EA
:100A0C0003F48033002B06D02C4B1A682B49BB699E
:100A1C0013430B6006E0294B1A68BB69DB4327497B
:100A2C0013400B603B685B6803F40033002B06D06B
:100A3C00224B5A682149BB6913434B6006E01F4B9C
:100A4C005A68BB69DB431D4913404B603B685B68CC
:100A5C0003F48013002B06D0184B9A681749BB6916
:100A6C0013438B6006E0154B9A68BB69DB43134953
:100A7C0013408B603B685B6803F40013002B1FD0A2
:100A8C000E4BDA680D49BB691343CB601FE000BF06
:100A9C000000321000003110000022100000211064
:100AAC000000121000001110001002400000014064
:100ABC0000080140000C01400010014000040140FE
:100ACC000B4BDA68BB69DB4309491340CB607B6A8B
:100ADC0001337B623B681A687B6A22FA03F3002BB2
:100AEC007FF496AE00BF00BF2C37BD4680BC70476C
:100AFC000004014080B586B000AF78607B68002BA5
:100B0C0001D1012372E27B681B6803F00103002B07
:100B1C0000F08780924B5B6803F00C03042B0CD025
:100B2C008F4B5B6803F00C03082B12D18C4B5B686A
:100B3C0003F48033B3F5803F0BD1894B1B6803F46E
:100B4C000033002B6CD07B685B68002B68D10123D1
:100B5C004CE27B685B68B3F5803F06D1804B1B6829
:100B6C007F4A43F4803313602EE07B685B68002B74
:100B7C000CD17B4B1B687A4A23F480331360784B7F
:100B8C001B68774A23F4802313601DE07B685B6845
:100B9C00B3F5A02F0CD1724B1B68714A43F4802320
:100BAC0013606F4B1B686E4A43F4803313600BE089
:100BBC006B4B1B686A4A23F480331360684B1B68C9
:100BCC00674A23F4802313607B685B68002B13D087
:100BDC00FFF726FD386108E0FFF722FD02463B696E
:100BEC00D31A642B01D9032300E25D4B1B6803F479
:100BFC000033002BF0D014E0FFF712FD386108E051
:100C0C00FFF70EFD02463B69D31A642B01D903236F
:100C1C00ECE1534B1B6803F40033002BF0D100E0E4
:100C2C0000BF7B681B6803F00203002B63D04C4BA6
:100C3C005B6803F00C03002B0BD0494B5B6803F093
:100C4C000C03082B1CD1464B5B6803F48033002B40
:100C5C0016D1434B1B6803F00203002B05D07B68B5
:100C6C001B69012B01D00123C0E13D4B1B6823F014
:100C7C00F8027B685B69DB00394913430B603AE08F
:100C8C007B681B69002B20D0364B01221A60FFF7C2
:100C9C00C7FC386108E0FFF7C3FC02463B69D31A76
:100CAC00022B01D90323A1E12D4B1B6803F0020396
:100CBC00002BF0D02A4B1B6823F0F8027B685B6991
:100CCC00DB00274913430B6015E0264B00221A600A
:100CDC00FFF7A6FC386108E0FFF7A2FC02463B696F
:100CEC00D31A022B01D9032380E11D4B1B6803F09F
:100CFC000203002BF0D17B681B6803F00803002B68
:100D0C003AD07B689B69002B19D0174B01221A60D3
:100D1C00FFF786FC386108E0FFF782FC02463B696E
:100D2C00D31A022B01D9032360E10D4B5B6A03F04C
:100D3C000203002BF0D0012000F0A6FA1CE00A4BB5
:100D4C0000221A60FFF76CFC38610FE0FFF768FCBB
:100D5C0002463B69D31A022B08D9032346E100BF94
:100D6C00001002400000424280044242924B5B6AF7
:100D7C0003F00203002BE9D17B681B6803F004032A
:100D8C00002B00F0A6800023FB758B4BDB6903F076
:100D9C008053002B0DD1884BDB69874A43F080537D
:100DAC00D361854BDB6903F08053BB60BB680123C7
:100DBC00FB75824B1B6803F48073002B18D17F4B9F
:100DCC001B687E4A43F480731360FFF729FC38617B
:100DDC0008E0FFF725FC02463B69D31A642B01D9C6
:100DEC00032303E1754B1B6803F48073002BF0D0D5
:100DFC007B68DB68012B06D16F4B1B6A6E4A43F094
:100E0C00010313622DE07B68DB68002B0CD16A4B6D
:100E1C001B6A694A23F001031362674B1B6A664A1B
:100E2C0023F0040313621CE07B68DB68052B0CD1F8
:100E3C00614B1B6A604A43F0040313625E4B1B6AEE
:100E4C005D4A43F0010313620BE05B4B1B6A5A4A89
:100E5C0023F001031362584B1B6A574A23F0040317
:100E6C0013627B68DB68002B15D0FFF7D9FB386168
:100E7C000AE0FFF7D5FB02463B69D31A41F28832F0
:100E8C00934201D90323B1E04B4B1B6A03F00203DD
:100E9C00002BEED014E0FFF7C3FB38610AE0FFF73C
:100EAC00BFFB02463B69D31A41F28832934201D907
:100EBC0003239BE0404B1B6A03F00203002BEED193
:100ECC00FB7D012B05D13C4BDB693B4A23F0805366
:100EDC00D3617B68DB69002B00F08780364B5B6845
:100EEC0003F00C03082B61D07B68DB69022B46D125
:100EFC00334B00221A60FFF793FB386108E0FFF7D1
:100F0C008FFB02463B69D31A022B01D903236DE0F8
:100F1C00294B1B6803F00073002BF0D17B681B6A14
:100F2C00B3F5803F08D1244B5B6823F400327B6817
:100F3C009B68214913434B601F4B5B6823F474126D
:100F4C007B68196A7B685B6A0B431B4913434B60D4
:100F5C001B4B01221A60FFF763FB386108E0FFF7B7
:100F6C005FFB02463B69D31A022B01D903233DE0F8
:100F7C00114B1B6803F00073002BF0D035E0104BC5
:100F8C0000221A60FFF74CFB386108E0FFF748FBC2
:100F9C0002463B69D31A022B01D9032326E0064BE8
:100FAC001B6803F00073002BF0D11EE07B68DB693B
:100FBC00012B07D1012319E0001002400070004002
:100FCC00600042420B4B5B68FB60FB6803F48032B1
:100FDC007B681B6A9A4206D1FB6803F470127B682B
:100FEC005B6A9A4201D0012300E0002318461837AF
:100FFC00BD4680BD0010024080B584B000AF786063
:10100C0039607B68002B01D10123D0E06A4B1B684F
:10101C0003F007033A689A4210D9674B1B6823F018
:10102C00070265493B6813430B60634B1B6803F075
:10103C0007033A689A4201D00123B8E07B681B6829
:10104C0003F00203002B20D07B681B6803F0040321
:10105C00002B05D0594B5B68584A43F4E06353604E
:10106C007B681B6803F00803002B05D0534B5B68AF
:10107C00524A43F460535360504B5B6823F0F002C8
:10108C007B689B684D4913434B607B681B6803F07E
:10109C000103002B40D07B685B68012B07D1474BC9
:1010AC001B6803F40033002B15D101237FE07B6810
:1010BC005B68022B07D1414B1B6803F00073002BBC
:1010CC0009D1012373E03D4B1B6803F00203002B95
:1010DC0001D101236BE0394B5B6823F003027B6881
:1010EC005B68364913434B60FFF79AFAF8600AE0E5
:1010FC00FFF796FA0246FB68D31A41F28832934204
:10110C0001D9032353E02D4B5B6803F00C027B6881
:10111C005B689B009A42EBD1274B1B6803F00703DB
:10112C003A689A4210D2244B1B6823F007022249DA
:10113C003B6813430B60204B1B6803F007033A68B2
:10114C009A4201D0012332E07B681B6803F0040350
:10115C00002B08D0194B5B6823F4E0627B68DB68DA
:10116C00164913434B607B681B6803F00803002B84
:10117C0009D0124B5B6823F460527B681B69DB005F
:10118C000E4913434B6000F021F802460B4B5B6891
:10119C001B0903F00F030A49CB5C22FA03F3094A3B
:1011AC001360094B1B681846FFF7F8F90023184623
:1011BC001037BD4680BD00BF002002400010024029
:1011CC0068180008200000202400002090B48AB089
:1011DC0000AF294B3C1D0FCB84E80F0040F20123DC
:1011EC003B800023FB610023BB6100237B62002357
:1011FC007B6100233B62214B5B68FB61FB6903F065
:10120C000C03042B02D0082B03D02BE01C4B3B62AD
:10121C002BE0FB699B0C03F00F0328333B4413F8C2
:10122C00243C7B61FB6903F48033002B12D0134BFD
:10123C005B685B0C03F0010328333B4413F8283C38
:10124C00BB617B690E4A03FB02F2BB69B2FBF3F391
:10125C007B6204E07B690B4A02FB03F37B627B6AD3
:10126C003B6202E0064B3B6200BF3B6A18462837E4
:10127C00BD4690BC704700BF5818000800100240D3
:10128C0000127A0000093D0080B485B000AF786090
:10129C000A4B1B680A4AA2FB03235B0A7A6802FB0F
:1012AC0003F3FB6000BFFB685A1EFA60002BF9D1F8
:1012BC0000BF00BF1437BD4680BC70472000002023
:1012CC00D34D621080B582B000AF78607B68002B84
:1012DC0001D1012353E07B6800229A627B6893F86A
:1012EC005130DBB2002B06D17B68002283F85020F2
:1012FC007868FFF76DF87B68022283F851207B68D1
:10130C001B681A687B681B6822F040021A607B68B5
:10131C005A687B689B681A437B68DB681A437B6856
:10132C001B691A437B685B691A437B689B6903F4EE
:10133C0000731A437B68DB691A437B681B6A42EAB9
:10134C0003017B689A6A7B681B680A431A607B6896
:10135C009B691A0C7B681B6802F004025A607B685C
:10136C001B68DA697B681B6822F40062DA617B68AF
:10137C0000225A657B68012283F85120002318460D
:10138C000837BD4680BD80B58CB000AFF860B96041
:10139C007A607B800123FB62002387F82B30FB688B
:1013AC0093F85030012B01D102238AE1FB68012212
:1013BC0083F85020FFF734F97862FB6893F85130CA
:1013CC0087F82330FB685B68FB617B887B8397F82D
:1013DC002330012B0FD0FB69B3F5827F07D1FB685B
:1013EC009B68002B03D197F82330042B03D00223E6
:1013FC0087F82B305BE1BB68002B05D07B68002B9A
:10140C0002D07B88002B03D1012387F82B304EE1CF
:10141C00FB6893F85130DBB2042B03D0FB68052238
:10142C0083F85120FB6800225A65FB687A689A633E
:10143C00FB687A88DA87FB687A889A87FB68BA68CF
:10144C001A63FB687A88DA86FB687A889A86FB6866
:10145C0000221A64FB6800225A64FB681B681B6834
:10146C0003F04003402B07D0FB681B681A68FB682D
:10147C001B6842F040021A60FB68DB68B3F5006F32
:10148C0078D1FB685B68002B02D07B8B012B66D17B
:10149C00FB681B6B1A88FB681B68DA60FB681B6BAC
:1014AC009A1CFB681A63FB68DB8E9BB2013B9AB2F9
:1014BC00FB68DA8653E0FB681B689B6803F0020349
:1014CC00022B1BD1FB68DB8E9BB2002B16D0FB6A68
:1014DC00012B13D1FB681B6B1A88FB681B68DA6045
:1014EC00FB681B6B9A1CFB681A63FB68DB8E9BB258
:1014FC00013B9AB2FB68DA860023FB62FB681B682F
:10150C009B6803F00103012B19D1FB68DB8F9BB2A5
:10151C00002B14D0FB681B68DA68FB689B6B92B2DB
:10152C001A80FB689B6B9A1CFB689A63FB68DB8FC9
:10153C009BB2013B9AB2FB68DA870123FB62FFF78F
:10154C006FF802467B6AD31ABA6B9A4207D8BB6B08
:10155C00B3F1FF3F03D0032387F82B30A7E0FB68E0
:10156C00DB8E9BB2002BA6D1FB68DB8F9BB2002BD2
:10157C00A1D17CE0FB685B68002B02D07B8B012B3C
:10158C006BD1FB681A6BFB681B680C3312781A70F2
:10159C00FB681B6B5A1CFB681A63FB68DB8E9BB2E7
:1015AC00013B9AB2FB68DA8657E0FB681B689B68C4
:1015BC0003F00203022B1CD1FB68DB8E9BB2002BC9
:1015CC0017D0FB6A012B14D1FB681A6BFB681B68E4
:1015DC000C3312781A70FB681B6B5A1CFB681A636D
:1015EC00FB68DB8E9BB2013B9AB2FB68DA86002368
:1015FC00FB62FB681B689B6803F00103012B19D18C
:10160C00FB68DB8F9BB2002B14D0FB681B68DA687D
:10161C00FB689B6BD2B21A70FB689B6B5A1CFB6805
:10162C009A63FB68DB8F9BB2013B9AB2FB68DA874B
:10163C000123FB62FEF7F4FF02467B6AD31ABA6BF6
:10164C009A4203D8BB6BB3F1FF3F02D1BB6B002BAB
:10165C0003D1032387F82B3029E0FB68DB8E9BB288
:10166C00002BA2D1FB68DB8F9BB2002B9DD17A6A39
:10167C00B96BF86800F093F80346002B06D00123F1
:10168C0087F82B30FB6820225A6510E0FB689B68BA
:10169C00002B0BD100237B61FB681B68DB687B6133
:1016AC00FB681B689B687B617B6900E000BFFB6883
:1016BC00012283F85120FB68002283F8502097F810
:1016CC002B3018463037BD4680BD80B584B000AF96
:1016DC00F860B9603B601346FB714CE03B68B3F1BA
:1016EC00FF3F48D0FEF79CFF0246BB69D31A3A680D
:1016FC009A4202D93B68002B3DD1FB681B685A68A3
:10170C00FB681B6822F0E0025A60FB685B68B3F56B
:10171C00827F11D1FB689B68B3F5004F04D0FB6846
:10172C009B68B3F5806F07D1FB681B681A68FB6870
:10173C001B6822F040021A60FB689B6AB3F5005FDD
:10174C000FD1FB681B681A68FB681B6822F40052F7
:10175C001A60FB681B681A68FB681B6842F400522D
:10176C001A60FB68012283F85120FB68002283F881
:10177C00502003230FE0FB681B689A68BB6813407A
:10178C00BA689A420CBF01230023DBB21A46FB79DC
:10179C009A42A3D1002318461037BD4680BD80B5B0
:1017AC0086B002AFF860B9607A607B680093BB6862
:1017BC0000228021F868FFF788FF0346002B07D032
:1017CC00FB685B6D43F02002FB685A65032300E065
:1017DC00002318461037BD4680BD03460244934291
:1017EC0000D1704703F8011BF9E7000070B5002623
:1017FC000C4D0D4C641BA410A64209D100F01AF834
:10180C0000260A4D0A4C641BA410A64205D170BDDB
:10181C0055F8043B98470136EEE755F8043B9847DA
:10182C000136F2E7781800087818000878180008D4
:10183C007C180008F8B500BFF8BC08BC9E46704781
:0C184C00F8B500BFF8BC08BC9E46704711
:1018580002030405060708090A0B0C0D0E0F1010E9
:101868000000000000000000010203040607080948
:041878003101000832
:04187C000D01000852
:1018800001107B00C80002108E00960003108A0031
:10189000640004107300DC0005106D0018010000E6
:0C18A0000024F400100000000100000013
:0400000508000531B9
:00000001FF
